{
  "contractName": "RealStateContractCities",
  "abi": [
    {
      "inputs": [],
      "stateMutability": "nonpayable",
      "type": "constructor"
    },
    {
      "inputs": [],
      "name": "administrator",
      "outputs": [
        {
          "internalType": "address",
          "name": "",
          "type": "address"
        }
      ],
      "stateMutability": "view",
      "type": "function",
      "constant": true
    },
    {
      "inputs": [
        {
          "internalType": "address",
          "name": "",
          "type": "address"
        }
      ],
      "name": "authorizedAddresses",
      "outputs": [
        {
          "internalType": "bool",
          "name": "",
          "type": "bool"
        }
      ],
      "stateMutability": "view",
      "type": "function",
      "constant": true
    },
    {
      "inputs": [
        {
          "internalType": "uint256",
          "name": "",
          "type": "uint256"
        }
      ],
      "name": "globalHistoricalData",
      "outputs": [
        {
          "internalType": "string",
          "name": "city",
          "type": "string"
        },
        {
          "internalType": "string",
          "name": "street",
          "type": "string"
        },
        {
          "internalType": "uint256",
          "name": "number",
          "type": "uint256"
        },
        {
          "internalType": "uint256",
          "name": "meters",
          "type": "uint256"
        },
        {
          "internalType": "uint256",
          "name": "registration",
          "type": "uint256"
        },
        {
          "internalType": "string",
          "name": "owner",
          "type": "string"
        },
        {
          "internalType": "uint256",
          "name": "timestamp",
          "type": "uint256"
        },
        {
          "internalType": "address",
          "name": "requester",
          "type": "address"
        },
        {
          "internalType": "uint256",
          "name": "price",
          "type": "uint256"
        }
      ],
      "stateMutability": "view",
      "type": "function",
      "constant": true
    },
    {
      "inputs": [
        {
          "internalType": "string",
          "name": "",
          "type": "string"
        },
        {
          "internalType": "uint256",
          "name": "",
          "type": "uint256"
        }
      ],
      "name": "historicalDataMap",
      "outputs": [
        {
          "internalType": "string",
          "name": "city",
          "type": "string"
        },
        {
          "internalType": "string",
          "name": "street",
          "type": "string"
        },
        {
          "internalType": "uint256",
          "name": "number",
          "type": "uint256"
        },
        {
          "internalType": "uint256",
          "name": "meters",
          "type": "uint256"
        },
        {
          "internalType": "uint256",
          "name": "registration",
          "type": "uint256"
        },
        {
          "internalType": "string",
          "name": "owner",
          "type": "string"
        },
        {
          "internalType": "uint256",
          "name": "timestamp",
          "type": "uint256"
        },
        {
          "internalType": "address",
          "name": "requester",
          "type": "address"
        },
        {
          "internalType": "uint256",
          "name": "price",
          "type": "uint256"
        }
      ],
      "stateMutability": "view",
      "type": "function",
      "constant": true
    },
    {
      "inputs": [
        {
          "internalType": "string",
          "name": "",
          "type": "string"
        },
        {
          "internalType": "uint256",
          "name": "",
          "type": "uint256"
        }
      ],
      "name": "realStateMap",
      "outputs": [
        {
          "internalType": "string",
          "name": "city",
          "type": "string"
        },
        {
          "internalType": "string",
          "name": "street",
          "type": "string"
        },
        {
          "internalType": "uint256",
          "name": "number",
          "type": "uint256"
        },
        {
          "internalType": "uint256",
          "name": "meters",
          "type": "uint256"
        },
        {
          "internalType": "uint256",
          "name": "registration",
          "type": "uint256"
        },
        {
          "internalType": "string",
          "name": "owner",
          "type": "string"
        },
        {
          "internalType": "uint256",
          "name": "price",
          "type": "uint256"
        }
      ],
      "stateMutability": "view",
      "type": "function",
      "constant": true
    },
    {
      "inputs": [
        {
          "internalType": "string",
          "name": "",
          "type": "string"
        },
        {
          "internalType": "string",
          "name": "",
          "type": "string"
        },
        {
          "internalType": "uint256",
          "name": "",
          "type": "uint256"
        }
      ],
      "name": "realStateMapMap",
      "outputs": [
        {
          "internalType": "string",
          "name": "city",
          "type": "string"
        },
        {
          "internalType": "string",
          "name": "street",
          "type": "string"
        },
        {
          "internalType": "uint256",
          "name": "number",
          "type": "uint256"
        },
        {
          "internalType": "uint256",
          "name": "meters",
          "type": "uint256"
        },
        {
          "internalType": "uint256",
          "name": "registration",
          "type": "uint256"
        },
        {
          "internalType": "string",
          "name": "owner",
          "type": "string"
        },
        {
          "internalType": "uint256",
          "name": "price",
          "type": "uint256"
        }
      ],
      "stateMutability": "view",
      "type": "function",
      "constant": true
    },
    {
      "inputs": [
        {
          "internalType": "string",
          "name": "_city",
          "type": "string"
        }
      ],
      "name": "getRealStateByCity",
      "outputs": [
        {
          "components": [
            {
              "internalType": "string",
              "name": "city",
              "type": "string"
            },
            {
              "internalType": "string",
              "name": "street",
              "type": "string"
            },
            {
              "internalType": "uint256",
              "name": "number",
              "type": "uint256"
            },
            {
              "internalType": "uint256",
              "name": "meters",
              "type": "uint256"
            },
            {
              "internalType": "uint256",
              "name": "registration",
              "type": "uint256"
            },
            {
              "internalType": "string",
              "name": "owner",
              "type": "string"
            },
            {
              "internalType": "uint256",
              "name": "price",
              "type": "uint256"
            }
          ],
          "internalType": "struct Shared.RealState[]",
          "name": "",
          "type": "tuple[]"
        }
      ],
      "stateMutability": "view",
      "type": "function",
      "constant": true
    },
    {
      "inputs": [
        {
          "components": [
            {
              "internalType": "string",
              "name": "city",
              "type": "string"
            },
            {
              "internalType": "string",
              "name": "street",
              "type": "string"
            },
            {
              "internalType": "uint256",
              "name": "number",
              "type": "uint256"
            },
            {
              "internalType": "uint256",
              "name": "meters",
              "type": "uint256"
            },
            {
              "internalType": "uint256",
              "name": "registration",
              "type": "uint256"
            },
            {
              "internalType": "string",
              "name": "owner",
              "type": "string"
            },
            {
              "internalType": "uint256",
              "name": "price",
              "type": "uint256"
            }
          ],
          "internalType": "struct Shared.RealState",
          "name": "realState",
          "type": "tuple"
        }
      ],
      "name": "addRealState",
      "outputs": [],
      "stateMutability": "nonpayable",
      "type": "function"
    },
    {
      "inputs": [],
      "name": "isAdministrator",
      "outputs": [
        {
          "internalType": "bool",
          "name": "",
          "type": "bool"
        }
      ],
      "stateMutability": "view",
      "type": "function",
      "constant": true
    },
    {
      "inputs": [
        {
          "internalType": "address",
          "name": "_authorizedAddress",
          "type": "address"
        }
      ],
      "name": "addAuthorizedAddress",
      "outputs": [],
      "stateMutability": "nonpayable",
      "type": "function"
    },
    {
      "inputs": [],
      "name": "getEthUsdPrice",
      "outputs": [
        {
          "internalType": "int256",
          "name": "",
          "type": "int256"
        }
      ],
      "stateMutability": "view",
      "type": "function",
      "constant": true
    },
    {
      "inputs": [],
      "name": "getGlobalHistoricalData",
      "outputs": [
        {
          "components": [
            {
              "internalType": "string",
              "name": "city",
              "type": "string"
            },
            {
              "internalType": "string",
              "name": "street",
              "type": "string"
            },
            {
              "internalType": "uint256",
              "name": "number",
              "type": "uint256"
            },
            {
              "internalType": "uint256",
              "name": "meters",
              "type": "uint256"
            },
            {
              "internalType": "uint256",
              "name": "registration",
              "type": "uint256"
            },
            {
              "internalType": "string",
              "name": "owner",
              "type": "string"
            },
            {
              "internalType": "uint256",
              "name": "timestamp",
              "type": "uint256"
            },
            {
              "internalType": "address",
              "name": "requester",
              "type": "address"
            },
            {
              "internalType": "uint256",
              "name": "price",
              "type": "uint256"
            }
          ],
          "internalType": "struct RealStateContractCities.HistoricalData[]",
          "name": "",
          "type": "tuple[]"
        }
      ],
      "stateMutability": "view",
      "type": "function",
      "constant": true
    }
  ],
  "bytecode": "0x608060405234801561001057600080fd5b5033600460006101000a81548173ffffffffffffffffffffffffffffffffffffffff021916908373ffffffffffffffffffffffffffffffffffffffff1602179055506001600560003373ffffffffffffffffffffffffffffffffffffffff1673ffffffffffffffffffffffffffffffffffffffff16815260200190815260200160002060006101000a81548160ff021916908315150217905550735f4ec3df9cbd43714fe2740f5e3616155c5b84196000806101000a81548173ffffffffffffffffffffffffffffffffffffffff021916908373ffffffffffffffffffffffffffffffffffffffff160217905550612ce58061010d6000396000f3fe608060405234801561001057600080fd5b50600436106100b45760003560e01c8063925280bb11610071578063925280bb146101ad578063a0a8045e146101cb578063af9e6bdb146101e9578063b533ad6014610221578063f19e207e14610257578063f53d0a8e14610287576100b4565b80630de06237146100b95780631ae68574146100e95780631aea62571461012157806320fc9d241461013f57806342f1181e1461015b5780637946bcf414610177575b600080fd5b6100d360048036038101906100ce919061194e565b6102a5565b6040516100e09190611bb0565b60405180910390f35b61010360048036038101906100fe9190611bfe565b610503565b60405161011899989796959493929190611cc5565b60405180910390f35b610129610719565b6040516101369190611d82565b60405180910390f35b61015960048036038101906101549190611dc1565b610771565b005b61017560048036038101906101709190611e36565b610b44565b005b610191600480360381019061018c9190611f93565b610c2f565b6040516101a49796959493929190611fef565b60405180910390f35b6101b5610e3c565b6040516101c29190612217565b60405180910390f35b6101d36110da565b6040516101e09190612252565b60405180910390f35b61020360048036038101906101fe9190611f93565b611179565b60405161021899989796959493929190611cc5565b60405180910390f35b61023b6004803603810190610236919061226d565b6113b2565b60405161024e9796959493929190611fef565b60405180910390f35b610271600480360381019061026c9190611e36565b6115e2565b60405161027e9190611d82565b60405180910390f35b61028f611602565b60405161029c91906122f8565b60405180910390f35b6060600283836040516102b9929190612343565b9081526020016040518091039020805480602002602001604051908101604052809291908181526020016000905b828210156104f757838290600052602060002090600702016040518060e001604052908160008201805461031a9061238b565b80601f01602080910402602001604051908101604052809291908181526020018280546103469061238b565b80156103935780601f1061036857610100808354040283529160200191610393565b820191906000526020600020905b81548152906001019060200180831161037657829003601f168201915b505050505081526020016001820180546103ac9061238b565b80601f01602080910402602001604051908101604052809291908181526020018280546103d89061238b565b80156104255780601f106103fa57610100808354040283529160200191610425565b820191906000526020600020905b81548152906001019060200180831161040857829003601f168201915b5050505050815260200160028201548152602001600382015481526020016004820154815260200160058201805461045c9061238b565b80601f01602080910402602001604051908101604052809291908181526020018280546104889061238b565b80156104d55780601f106104aa576101008083540402835291602001916104d5565b820191906000526020600020905b8154815290600101906020018083116104b857829003601f168201915b50505050508152602001600682015481525050815260200190600101906102e7565b50505050905092915050565b6001818154811061051357600080fd5b90600052602060002090600902016000915090508060000180546105369061238b565b80601f01602080910402602001604051908101604052809291908181526020018280546105629061238b565b80156105af5780601f10610584576101008083540402835291602001916105af565b820191906000526020600020905b81548152906001019060200180831161059257829003601f168201915b5050505050908060010180546105c49061238b565b80601f01602080910402602001604051908101604052809291908181526020018280546105f09061238b565b801561063d5780601f106106125761010080835404028352916020019161063d565b820191906000526020600020905b81548152906001019060200180831161062057829003601f168201915b5050505050908060020154908060030154908060040154908060050180546106649061238b565b80601f01602080910402602001604051908101604052809291908181526020018280546106909061238b565b80156106dd5780601f106106b2576101008083540402835291602001916106dd565b820191906000526020600020905b8154815290600101906020018083116106c057829003601f168201915b5050505050908060060154908060070160009054906101000a900473ffffffffffffffffffffffffffffffffffffffff16908060080154905089565b6000600460009054906101000a900473ffffffffffffffffffffffffffffffffffffffff1673ffffffffffffffffffffffffffffffffffffffff163373ffffffffffffffffffffffffffffffffffffffff1614905090565b600060405180610120016040528083806000019061078f91906123cb565b8080601f016020809104026020016040519081016040528093929190818152602001838380828437600081840152601f19601f8201169050808301925050505050505081526020018380602001906107e791906123cb565b8080601f016020809104026020016040519081016040528093929190818152602001838380828437600081840152601f19601f820116905080830192505050505050508152602001836040013581526020018360600135815260200183608001358152602001838060a0019061085d91906123cb565b8080601f016020809104026020016040519081016040528093929190818152602001838380828437600081840152601f19601f8201169050808301925050505050505081526020014281526020013373ffffffffffffffffffffffffffffffffffffffff1681526020018360c0013581525090506001819080600181540180825580915050600190039060005260206000209060090201600090919091909150600082015181600001908161091291906125da565b50602082015181600101908161092891906125da565b5060408201518160020155606082015181600301556080820151816004015560a082015181600501908161095c91906125da565b5060c0820151816006015560e08201518160070160006101000a81548173ffffffffffffffffffffffffffffffffffffffff021916908373ffffffffffffffffffffffffffffffffffffffff1602179055506101008201518160080155505060068280600001906109cd91906123cb565b6040516109db929190612343565b90815260200160405180910390208190806001815401808255809150506001900390600052602060002090600902016000909190919091506000820151816000019081610a2891906125da565b506020820151816001019081610a3e91906125da565b5060408201518160020155606082015181600301556080820151816004015560a0820151816005019081610a7291906125da565b5060c0820151816006015560e08201518160070160006101000a81548173ffffffffffffffffffffffffffffffffffffffff021916908373ffffffffffffffffffffffffffffffffffffffff16021790555061010082015181600801555050610ada82611628565b6002828060000190610aec91906123cb565b604051610afa929190612343565b90815260200160405180910390208290806001815401808255809150506001900390600052602060002090600702016000909190919091508181610b3e919061290a565b50505050565b600460009054906101000a900473ffffffffffffffffffffffffffffffffffffffff1673ffffffffffffffffffffffffffffffffffffffff163373ffffffffffffffffffffffffffffffffffffffff1614610bd4576040517f08c379a0000000000000000000000000000000000000000000000000000000008152600401610bcb9061298a565b60405180910390fd5b6001600560008373ffffffffffffffffffffffffffffffffffffffff1673ffffffffffffffffffffffffffffffffffffffff16815260200190815260200160002060006101000a81548160ff02191690831515021790555050565b6002828051602081018201805184825260208301602085012081835280955050505050508181548110610c6157600080fd5b906000526020600020906007020160009150915050806000018054610c859061238b565b80601f0160208091040260200160405190810160405280929190818152602001828054610cb19061238b565b8015610cfe5780601f10610cd357610100808354040283529160200191610cfe565b820191906000526020600020905b815481529060010190602001808311610ce157829003601f168201915b505050505090806001018054610d139061238b565b80601f0160208091040260200160405190810160405280929190818152602001828054610d3f9061238b565b8015610d8c5780601f10610d6157610100808354040283529160200191610d8c565b820191906000526020600020905b815481529060010190602001808311610d6f57829003601f168201915b505050505090806002015490806003015490806004015490806005018054610db39061238b565b80601f0160208091040260200160405190810160405280929190818152602001828054610ddf9061238b565b8015610e2c5780601f10610e0157610100808354040283529160200191610e2c565b820191906000526020600020905b815481529060010190602001808311610e0f57829003601f168201915b5050505050908060060154905087565b60606001805480602002602001604051908101604052809291908181526020016000905b828210156110d1578382906000526020600020906009020160405180610120016040529081600082018054610e949061238b565b80601f0160208091040260200160405190810160405280929190818152602001828054610ec09061238b565b8015610f0d5780601f10610ee257610100808354040283529160200191610f0d565b820191906000526020600020905b815481529060010190602001808311610ef057829003601f168201915b50505050508152602001600182018054610f269061238b565b80601f0160208091040260200160405190810160405280929190818152602001828054610f529061238b565b8015610f9f5780601f10610f7457610100808354040283529160200191610f9f565b820191906000526020600020905b815481529060010190602001808311610f8257829003601f168201915b50505050508152602001600282015481526020016003820154815260200160048201548152602001600582018054610fd69061238b565b80601f01602080910402602001604051908101604052809291908181526020018280546110029061238b565b801561104f5780601f106110245761010080835404028352916020019161104f565b820191906000526020600020905b81548152906001019060200180831161103257829003601f168201915b50505050508152602001600682015481526020016007820160009054906101000a900473ffffffffffffffffffffffffffffffffffffffff1673ffffffffffffffffffffffffffffffffffffffff1673ffffffffffffffffffffffffffffffffffffffff16815260200160088201548152505081526020019060010190610e60565b50505050905090565b60008060008054906101000a900473ffffffffffffffffffffffffffffffffffffffff1673ffffffffffffffffffffffffffffffffffffffff1663feaf968c6040518163ffffffff1660e01b815260040160a060405180830381865afa158015611148573d6000803e3d6000fd5b505050506040513d601f19601f8201168201806040525081019061116c9190612a2d565b5050509150508091505090565b60068280516020810182018051848252602083016020850120818352809550505050505081815481106111ab57600080fd5b9060005260206000209060090201600091509150508060000180546111cf9061238b565b80601f01602080910402602001604051908101604052809291908181526020018280546111fb9061238b565b80156112485780601f1061121d57610100808354040283529160200191611248565b820191906000526020600020905b81548152906001019060200180831161122b57829003601f168201915b50505050509080600101805461125d9061238b565b80601f01602080910402602001604051908101604052809291908181526020018280546112899061238b565b80156112d65780601f106112ab576101008083540402835291602001916112d6565b820191906000526020600020905b8154815290600101906020018083116112b957829003601f168201915b5050505050908060020154908060030154908060040154908060050180546112fd9061238b565b80601f01602080910402602001604051908101604052809291908181526020018280546113299061238b565b80156113765780601f1061134b57610100808354040283529160200191611376565b820191906000526020600020905b81548152906001019060200180831161135957829003601f168201915b5050505050908060060154908060070160009054906101000a900473ffffffffffffffffffffffffffffffffffffffff16908060080154905089565b60038380516020810182018051848252602083016020850120818352809550505050505082805160208101820180518482526020830160208501208183528095505050505050818154811061140657600080fd5b9060005260206000209060070201600092509250505080600001805461142b9061238b565b80601f01602080910402602001604051908101604052809291908181526020018280546114579061238b565b80156114a45780601f10611479576101008083540402835291602001916114a4565b820191906000526020600020905b81548152906001019060200180831161148757829003601f168201915b5050505050908060010180546114b99061238b565b80601f01602080910402602001604051908101604052809291908181526020018280546114e59061238b565b80156115325780601f1061150757610100808354040283529160200191611532565b820191906000526020600020905b81548152906001019060200180831161151557829003601f168201915b5050505050908060020154908060030154908060040154908060050180546115599061238b565b80601f01602080910402602001604051908101604052809291908181526020018280546115859061238b565b80156115d25780601f106115a7576101008083540402835291602001916115d2565b820191906000526020600020905b8154815290600101906020018083116115b557829003601f168201915b5050505050908060060154905087565b60056020528060005260406000206000915054906101000a900460ff1681565b600460009054906101000a900473ffffffffffffffffffffffffffffffffffffffff1681565b6000600282806000019061163c91906123cb565b60405161164a929190612343565b9081526020016040518091039020905060005b818054905081101561187357826080013582828154811061168157611680612aa8565b5b90600052602060002090600702016004015403611860578181815481106116ab576116aa612aa8565b5b9060005260206000209060070201600080820160006116ca9190611878565b6001820160006116da9190611878565b6002820160009055600382016000905560048201600090556005820160006117029190611878565b600682016000905550506001828054905061171d9190612b06565b8110156117e15781600183805490506117369190612b06565b8154811061174757611746612aa8565b5b906000526020600020906007020182828154811061176857611767612aa8565b5b90600052602060002090600702016000820181600001908161178a9190612b50565b506001820181600101908161179f9190612b50565b50600282015481600201556003820154816003015560048201548160040155600582018160050190816117d29190612b50565b50600682015481600601559050505b818054806117f2576117f1612c38565b5b6001900381819060005260206000209060070201600080820160006118179190611878565b6001820160006118279190611878565b60028201600090556003820160009055600482016000905560058201600061184f9190611878565b600682016000905550509055611873565b808061186b90612c67565b91505061165d565b505050565b5080546118849061238b565b6000825580601f1061189657506118b5565b601f0160209004906000526020600020908101906118b491906118b8565b5b50565b5b808211156118d15760008160009055506001016118b9565b5090565b6000604051905090565b600080fd5b600080fd5b600080fd5b600080fd5b600080fd5b60008083601f84011261190e5761190d6118e9565b5b8235905067ffffffffffffffff81111561192b5761192a6118ee565b5b602083019150836001820283011115611947576119466118f3565b5b9250929050565b60008060208385031215611965576119646118df565b5b600083013567ffffffffffffffff811115611983576119826118e4565b5b61198f858286016118f8565b92509250509250929050565b600081519050919050565b600082825260208201905092915050565b6000819050602082019050919050565b600081519050919050565b600082825260208201905092915050565b60005b83811015611a015780820151818401526020810190506119e6565b60008484015250505050565b6000601f19601f8301169050919050565b6000611a29826119c7565b611a3381856119d2565b9350611a438185602086016119e3565b611a4c81611a0d565b840191505092915050565b6000819050919050565b611a6a81611a57565b82525050565b600060e0830160008301518482036000860152611a8d8282611a1e565b91505060208301518482036020860152611aa78282611a1e565b9150506040830151611abc6040860182611a61565b506060830151611acf6060860182611a61565b506080830151611ae26080860182611a61565b5060a083015184820360a0860152611afa8282611a1e565b91505060c0830151611b0f60c0860182611a61565b508091505092915050565b6000611b268383611a70565b905092915050565b6000602082019050919050565b6000611b468261199b565b611b5081856119a6565b935083602082028501611b62856119b7565b8060005b85811015611b9e5784840389528151611b7f8582611b1a565b9450611b8a83611b2e565b925060208a01995050600181019050611b66565b50829750879550505050505092915050565b60006020820190508181036000830152611bca8184611b3b565b905092915050565b611bdb81611a57565b8114611be657600080fd5b50565b600081359050611bf881611bd2565b92915050565b600060208284031215611c1457611c136118df565b5b6000611c2284828501611be9565b91505092915050565b600082825260208201905092915050565b6000611c47826119c7565b611c518185611c2b565b9350611c618185602086016119e3565b611c6a81611a0d565b840191505092915050565b611c7e81611a57565b82525050565b600073ffffffffffffffffffffffffffffffffffffffff82169050919050565b6000611caf82611c84565b9050919050565b611cbf81611ca4565b82525050565b6000610120820190508181036000830152611ce0818c611c3c565b90508181036020830152611cf4818b611c3c565b9050611d03604083018a611c75565b611d106060830189611c75565b611d1d6080830188611c75565b81810360a0830152611d2f8187611c3c565b9050611d3e60c0830186611c75565b611d4b60e0830185611cb6565b611d59610100830184611c75565b9a9950505050505050505050565b60008115159050919050565b611d7c81611d67565b82525050565b6000602082019050611d976000830184611d73565b92915050565b600080fd5b600060e08284031215611db857611db7611d9d565b5b81905092915050565b600060208284031215611dd757611dd66118df565b5b600082013567ffffffffffffffff811115611df557611df46118e4565b5b611e0184828501611da2565b91505092915050565b611e1381611ca4565b8114611e1e57600080fd5b50565b600081359050611e3081611e0a565b92915050565b600060208284031215611e4c57611e4b6118df565b5b6000611e5a84828501611e21565b91505092915050565b600080fd5b7f4e487b7100000000000000000000000000000000000000000000000000000000600052604160045260246000fd5b611ea082611a0d565b810181811067ffffffffffffffff82111715611ebf57611ebe611e68565b5b80604052505050565b6000611ed26118d5565b9050611ede8282611e97565b919050565b600067ffffffffffffffff821115611efe57611efd611e68565b5b611f0782611a0d565b9050602081019050919050565b82818337600083830152505050565b6000611f36611f3184611ee3565b611ec8565b905082815260208101848484011115611f5257611f51611e63565b5b611f5d848285611f14565b509392505050565b600082601f830112611f7a57611f796118e9565b5b8135611f8a848260208601611f23565b91505092915050565b60008060408385031215611faa57611fa96118df565b5b600083013567ffffffffffffffff811115611fc857611fc76118e4565b5b611fd485828601611f65565b9250506020611fe585828601611be9565b9150509250929050565b600060e0820190508181036000830152612009818a611c3c565b9050818103602083015261201d8189611c3c565b905061202c6040830188611c75565b6120396060830187611c75565b6120466080830186611c75565b81810360a08301526120588185611c3c565b905061206760c0830184611c75565b98975050505050505050565b600081519050919050565b600082825260208201905092915050565b6000819050602082019050919050565b6120a881611ca4565b82525050565b60006101208301600083015184820360008601526120cc8282611a1e565b915050602083015184820360208601526120e68282611a1e565b91505060408301516120fb6040860182611a61565b50606083015161210e6060860182611a61565b5060808301516121216080860182611a61565b5060a083015184820360a08601526121398282611a1e565b91505060c083015161214e60c0860182611a61565b5060e083015161216160e086018261209f565b50610100830151612176610100860182611a61565b508091505092915050565b600061218d83836120ae565b905092915050565b6000602082019050919050565b60006121ad82612073565b6121b7818561207e565b9350836020820285016121c98561208f565b8060005b8581101561220557848403895281516121e68582612181565b94506121f183612195565b925060208a019950506001810190506121cd565b50829750879550505050505092915050565b6000602082019050818103600083015261223181846121a2565b905092915050565b6000819050919050565b61224c81612239565b82525050565b60006020820190506122676000830184612243565b92915050565b600080600060608486031215612286576122856118df565b5b600084013567ffffffffffffffff8111156122a4576122a36118e4565b5b6122b086828701611f65565b935050602084013567ffffffffffffffff8111156122d1576122d06118e4565b5b6122dd86828701611f65565b92505060406122ee86828701611be9565b9150509250925092565b600060208201905061230d6000830184611cb6565b92915050565b600081905092915050565b600061232a8385612313565b9350612337838584611f14565b82840190509392505050565b600061235082848661231e565b91508190509392505050565b7f4e487b7100000000000000000000000000000000000000000000000000000000600052602260045260246000fd5b600060028204905060018216806123a357607f821691505b6020821081036123b6576123b561235c565b5b50919050565b600080fd5b600080fd5b600080fd5b600080833560016020038436030381126123e8576123e76123bc565b5b80840192508235915067ffffffffffffffff82111561240a576124096123c1565b5b602083019250600182023603831315612426576124256123c6565b5b509250929050565b60008190508160005260206000209050919050565b60006020601f8301049050919050565b600082821b905092915050565b6000600883026124907fffffffffffffffffffffffffffffffffffffffffffffffffffffffffffffffff82612453565b61249a8683612453565b95508019841693508086168417925050509392505050565b6000819050919050565b60006124d76124d26124cd84611a57565b6124b2565b611a57565b9050919050565b6000819050919050565b6124f1836124bc565b6125056124fd826124de565b848454612460565b825550505050565b600090565b61251a61250d565b6125258184846124e8565b505050565b5b818110156125495761253e600082612512565b60018101905061252b565b5050565b601f82111561258e5761255f8161242e565b61256884612443565b81016020851015612577578190505b61258b61258385612443565b83018261252a565b50505b505050565b600082821c905092915050565b60006125b160001984600802612593565b1980831691505092915050565b60006125ca83836125a0565b9150826002028217905092915050565b6125e3826119c7565b67ffffffffffffffff8111156125fc576125fb611e68565b5b612606825461238b565b61261182828561254d565b600060209050601f8311600181146126445760008415612632578287015190505b61263c85826125be565b8655506126a4565b601f1984166126528661242e565b60005b8281101561267a57848901518255600182019150602085019450602081019050612655565b868310156126975784890151612693601f8916826125a0565b8355505b6001600288020188555050505b505050505050565b600082905092915050565b6126c183836126ac565b67ffffffffffffffff8111156126da576126d9611e68565b5b6126e4825461238b565b6126ef82828561254d565b6000601f83116001811461271e576000841561270c578287013590505b61271685826125be565b86555061277e565b601f19841661272c8661242e565b60005b828110156127545784890135825560018201915060208501945060208101905061272f565b86831015612771578489013561276d601f8916826125a0565b8355505b6001600288020188555050505b50505050505050565b6127928383836126b7565b505050565b600081356127a481611bd2565b80915050919050565b60008160001b9050919050565b60007fffffffffffffffffffffffffffffffffffffffffffffffffffffffffffffffff6127e6846127ad565b9350801983169250808416831791505092915050565b612805826124bc565b612818612811826124de565b83546127ba565b8255505050565b600081016000830161283181856123cb565b61283c818386612787565b50505050600181016020830161285281856123cb565b61285d818386612787565b5050505060028101604083018061287381612797565b905061287f81846127fc565b50505060038101606083018061289481612797565b90506128a081846127fc565b5050506004810160808301806128b581612797565b90506128c181846127fc565b5050506005810160a083016128d681856123cb565b6128e1818386612787565b505050506006810160c08301806128f781612797565b905061290381846127fc565b5050505050565b612914828261281f565b5050565b7f4f6e6c79207468652061646d696e6973747261746f722063616e2063616c6c2060008201527f746869732066756e6374696f6e00000000000000000000000000000000000000602082015250565b6000612974602d83611c2b565b915061297f82612918565b604082019050919050565b600060208201905081810360008301526129a381612967565b9050919050565b600069ffffffffffffffffffff82169050919050565b6129c9816129aa565b81146129d457600080fd5b50565b6000815190506129e6816129c0565b92915050565b6129f581612239565b8114612a0057600080fd5b50565b600081519050612a12816129ec565b92915050565b600081519050612a2781611bd2565b92915050565b600080600080600060a08688031215612a4957612a486118df565b5b6000612a57888289016129d7565b9550506020612a6888828901612a03565b9450506040612a7988828901612a18565b9350506060612a8a88828901612a18565b9250506080612a9b888289016129d7565b9150509295509295909350565b7f4e487b7100000000000000000000000000000000000000000000000000000000600052603260045260246000fd5b7f4e487b7100000000000000000000000000000000000000000000000000000000600052601160045260246000fd5b6000612b1182611a57565b9150612b1c83611a57565b9250828203905081811115612b3457612b33612ad7565b5b92915050565b600081549050612b498161238b565b9050919050565b818103612b5e575050612c36565b612b6782612b3a565b67ffffffffffffffff811115612b8057612b7f611e68565b5b612b8a825461238b565b612b9582828561254d565b6000601f831160018114612bc45760008415612bb2578287015490505b612bbc85826125be565b865550612c2f565b601f198416612bd28761242e565b9650612bdd8661242e565b60005b82811015612c0557848901548255600182019150600185019450602081019050612be0565b86831015612c225784890154612c1e601f8916826125a0565b8355505b6001600288020188555050505b5050505050505b565b7f4e487b7100000000000000000000000000000000000000000000000000000000600052603160045260246000fd5b6000612c7282611a57565b91507fffffffffffffffffffffffffffffffffffffffffffffffffffffffffffffffff8203612ca457612ca3612ad7565b5b60018201905091905056fea264697066735822122024d75f281f90784e0ac2a0644108e5a8bda0ecd3ba63148ab9b95de403fd244564736f6c63430008110033",
  "immutableReferences": {},
  "source": "pragma solidity ^0.8.10;\r\nimport \"@chainlink/contracts/src/v0.8/interfaces/AggregatorV3Interface.sol\";\r\n\r\nlibrary Shared {\r\n    struct RealState {\r\n        string city;\r\n        string street;\r\n        uint number;\r\n        uint meters;\r\n        uint registration;\r\n        string owner;\r\n        uint price;\r\n    }\r\n}\r\n\r\ncontract RealStateContractCities {\r\n\r\n    struct HistoricalData {\r\n        string city;\r\n        string street;\r\n        uint number;\r\n        uint meters;\r\n        uint registration;\r\n        string owner;\r\n        uint timestamp;\r\n        address requester;\r\n        uint price;\r\n    }\r\n\r\n    AggregatorV3Interface internal priceFeed;\r\n\r\n    HistoricalData[] public globalHistoricalData;\r\n    \r\n    mapping( string => Shared.RealState[]) public realStateMap;\r\n\r\n    mapping( string => mapping( string => Shared.RealState[])) public realStateMapMap;\r\n\r\n    address public administrator;\r\n    mapping(address => bool) public authorizedAddresses;\r\n\r\n    mapping(string => HistoricalData[]) public historicalDataMap;\r\n\r\n    function getRealStateByCity (string calldata _city) public view returns(Shared.RealState[] memory) {\r\n        return realStateMap[_city];\r\n    }\r\n\r\n   function addRealState(Shared.RealState calldata realState) public {\r\n        HistoricalData memory historicalData = HistoricalData({\r\n            city: realState.city,\r\n            street: realState.street,\r\n            number: realState.number,\r\n            meters: realState.meters,\r\n            registration: realState.registration,\r\n            owner: realState.owner,\r\n            timestamp: block.timestamp,\r\n            requester: msg.sender,\r\n            price: realState.price \r\n        });\r\n\r\n        globalHistoricalData.push(historicalData);\r\n        historicalDataMap[realState.city].push(historicalData);\r\n        removeExistingRealState(realState);\r\n        realStateMap[realState.city].push(realState);\r\n\r\n        //int ethUsdPrice = getEthUsdPrice();\r\n    }\r\n\r\n    function removeExistingRealState(Shared.RealState calldata realState) internal {\r\n    Shared.RealState[] storage existingRealStates = realStateMap[realState.city];\r\n\r\n    for (uint i = 0; i < existingRealStates.length; i++) {\r\n        if (existingRealStates[i].registration == realState.registration) {\r\n            delete existingRealStates[i];\r\n            if (i < existingRealStates.length - 1) {\r\n                existingRealStates[i] = existingRealStates[existingRealStates.length - 1];\r\n            }\r\n            existingRealStates.pop();\r\n            break;\r\n        }\r\n    }\r\n    }\r\n\r\n\r\n\r\n    constructor() {\r\n        administrator = msg.sender;\r\n        authorizedAddresses[msg.sender] = true;\r\n        priceFeed = AggregatorV3Interface(0x5f4eC3Df9cbd43714FE2740f5E3616155c5b8419);\r\n    }\r\n\r\n    function isAdministrator() public view returns (bool) {\r\n        return msg.sender == administrator;\r\n    }\r\n\r\n    function addAuthorizedAddress(address _authorizedAddress) public  {\r\n        require(msg.sender == administrator, \"Only the administrator can call this function\");\r\n        authorizedAddresses[_authorizedAddress] = true;\r\n    }\r\n\r\n    function getEthUsdPrice() public view returns (int) {\r\n        (, int price, , ,) = priceFeed.latestRoundData();\r\n        return price;\r\n    }\r\n\r\n    function getGlobalHistoricalData() public view returns (HistoricalData[] memory) {\r\n        return globalHistoricalData;\r\n    }\r\n\r\n}\r\n\r\n\r\ncontract RealStateContract{\r\n\r\n    struct RealState {\r\n        string city;\r\n        string street;\r\n        uint number;\r\n        uint meters;\r\n        uint registration;\r\n        string owner;\r\n        uint price;\r\n    }\r\n\r\n    RealState[] public realStateArray;\r\n\r\n    \r\n\r\nfunction addRealState(string calldata _city, string calldata _street, \r\n        uint _number, uint _meters, uint _registration, string calldata _owner, uint _price) public {\r\n    \r\n    for(uint i = 0; i < realStateArray.length; i++){\r\n        if (realStateArray[i].registration == _registration){\r\n            if (i != realStateArray.length - 1) {\r\n                realStateArray[i] = realStateArray[realStateArray.length - 1];\r\n            }\r\n            realStateArray.pop(); \r\n            break; \r\n        }\r\n    }\r\n\r\n    RealState memory re = RealState(_city, _street, _number, _meters, _registration, _owner, _price);\r\n    realStateArray.push(re);\r\n}\r\n\r\n\r\n    function getRealStateByRegistration (uint _registration) public view returns(RealState memory) {\r\n        for(uint i =0; i < realStateArray.length; i++){\r\n            if (realStateArray[i].registration == _registration){\r\n                return realStateArray[i];\r\n            }\r\n        }\r\n\r\n         revert(\"Not found RealState with this registration\");\r\n    }\r\n\r\n    function deleteRealStateByRegistration(uint _registration) public {\r\n        for(uint i =0; i < realStateArray.length; i++){\r\n            if (realStateArray[i].registration == _registration){\r\n                delete realStateArray[i];\r\n\r\n                for(uint j =i; j < realStateArray.length-1; j++){\r\n                    realStateArray[j] = realStateArray[j+1];\r\n                }\r\n\r\n                realStateArray.pop(); // delete the last\r\n                // Important to reduce -1 the leght of array\r\n\r\n                return; // for finish method\r\n            }\r\n        }\r\n    }\r\n\r\n    function getRealStateByCity (string calldata _city) public view returns(RealState[] memory) {\r\n       uint resultLength = 0;\r\n        for(uint i =0; i < realStateArray.length; i++){\r\n            if (keccak256(bytes(realStateArray[i].city)) == keccak256(bytes(_city))){\r\n                resultLength++;\r\n            }\r\n        }\r\n        RealState[] memory rsReturn = new RealState[](resultLength);\r\n        uint positionInsert = 0;\r\n        for(uint i =0; i < realStateArray.length; i++){\r\n            if (keccak256(bytes(realStateArray[i].city)) == keccak256(bytes(_city))){\r\n                rsReturn[positionInsert] = realStateArray[i];\r\n                positionInsert++;\r\n            }\r\n        }\r\n        return rsReturn;\r\n    }\r\n}",
  "sourcePath": "C:\\Users\\javie\\OneDrive\\Escritorio\\backup\\bnb3\\contracts\\RealStateContract.sol",
  "compiler": {
    "name": "solc",
    "version": "0.8.17+commit.8df45f5f.Emscripten.clang"
  },
  "schemaVersion": "3.4.16",
  "updatedAt": "2023-12-17T15:01:00.993Z",
  "networkType": "ethereum",
  "devdoc": {
    "kind": "dev",
    "methods": {},
    "version": 1
  },
  "userdoc": {
    "kind": "user",
    "methods": {},
    "version": 1
  }
}