{
  "contractName": "RealStateContract",
  "abi": [
    {
      "inputs": [
        {
          "internalType": "uint256",
          "name": "",
          "type": "uint256"
        }
      ],
      "name": "realStateArray",
      "outputs": [
        {
          "internalType": "string",
          "name": "city",
          "type": "string"
        },
        {
          "internalType": "string",
          "name": "street",
          "type": "string"
        },
        {
          "internalType": "uint256",
          "name": "number",
          "type": "uint256"
        },
        {
          "internalType": "uint256",
          "name": "meters",
          "type": "uint256"
        },
        {
          "internalType": "uint256",
          "name": "registration",
          "type": "uint256"
        },
        {
          "internalType": "string",
          "name": "owner",
          "type": "string"
        },
        {
          "internalType": "uint256",
          "name": "price",
          "type": "uint256"
        }
      ],
      "stateMutability": "view",
      "type": "function",
      "constant": true
    },
    {
      "inputs": [
        {
          "internalType": "string",
          "name": "_city",
          "type": "string"
        },
        {
          "internalType": "string",
          "name": "_street",
          "type": "string"
        },
        {
          "internalType": "uint256",
          "name": "_number",
          "type": "uint256"
        },
        {
          "internalType": "uint256",
          "name": "_meters",
          "type": "uint256"
        },
        {
          "internalType": "uint256",
          "name": "_registration",
          "type": "uint256"
        },
        {
          "internalType": "string",
          "name": "_owner",
          "type": "string"
        },
        {
          "internalType": "uint256",
          "name": "_price",
          "type": "uint256"
        }
      ],
      "name": "addRealState",
      "outputs": [],
      "stateMutability": "nonpayable",
      "type": "function"
    },
    {
      "inputs": [
        {
          "internalType": "uint256",
          "name": "_registration",
          "type": "uint256"
        }
      ],
      "name": "getRealStateByRegistration",
      "outputs": [
        {
          "components": [
            {
              "internalType": "string",
              "name": "city",
              "type": "string"
            },
            {
              "internalType": "string",
              "name": "street",
              "type": "string"
            },
            {
              "internalType": "uint256",
              "name": "number",
              "type": "uint256"
            },
            {
              "internalType": "uint256",
              "name": "meters",
              "type": "uint256"
            },
            {
              "internalType": "uint256",
              "name": "registration",
              "type": "uint256"
            },
            {
              "internalType": "string",
              "name": "owner",
              "type": "string"
            },
            {
              "internalType": "uint256",
              "name": "price",
              "type": "uint256"
            }
          ],
          "internalType": "struct RealStateContract.RealState",
          "name": "",
          "type": "tuple"
        }
      ],
      "stateMutability": "view",
      "type": "function",
      "constant": true
    },
    {
      "inputs": [
        {
          "internalType": "uint256",
          "name": "_registration",
          "type": "uint256"
        }
      ],
      "name": "deleteRealStateByRegistration",
      "outputs": [],
      "stateMutability": "nonpayable",
      "type": "function"
    },
    {
      "inputs": [
        {
          "internalType": "string",
          "name": "_city",
          "type": "string"
        }
      ],
      "name": "getRealStateByCity",
      "outputs": [
        {
          "components": [
            {
              "internalType": "string",
              "name": "city",
              "type": "string"
            },
            {
              "internalType": "string",
              "name": "street",
              "type": "string"
            },
            {
              "internalType": "uint256",
              "name": "number",
              "type": "uint256"
            },
            {
              "internalType": "uint256",
              "name": "meters",
              "type": "uint256"
            },
            {
              "internalType": "uint256",
              "name": "registration",
              "type": "uint256"
            },
            {
              "internalType": "string",
              "name": "owner",
              "type": "string"
            },
            {
              "internalType": "uint256",
              "name": "price",
              "type": "uint256"
            }
          ],
          "internalType": "struct RealStateContract.RealState[]",
          "name": "",
          "type": "tuple[]"
        }
      ],
      "stateMutability": "view",
      "type": "function",
      "constant": true
    }
  ],
  "bytecode": "0x608060405234801561001057600080fd5b50611c94806100206000396000f3fe608060405234801561001057600080fd5b50600436106100575760003560e01c80630de062371461005c57806338de5f771461008c57806382e27eab146100a85780638324aa5b146100d857806393945aae146100f4575b600080fd5b61007660048036038101906100719190610ff4565b61012a565b6040516100839190611256565b60405180910390f35b6100a660048036038101906100a191906112a4565b6104cf565b005b6100c260048036038101906100bd91906113a7565b61081f565b6040516100cf919061147e565b60405180910390f35b6100f260048036038101906100ed91906113a7565b610aca565b005b61010e600480360381019061010991906113a7565b610d01565b60405161012197969594939291906114f9565b60405180910390f35b60606000805b6000805490508110156101b657848460405161014d9291906115bc565b604051809103902060008281548110610169576101686115d5565b5b906000526020600020906007020160000160405161018791906116fc565b6040518091039020036101a357818061019f90611742565b9250505b80806101ae90611742565b915050610130565b5060008167ffffffffffffffff8111156101d3576101d261178a565b5b60405190808252806020026020018201604052801561020c57816020015b6101f9610eeb565b8152602001906001900390816101f15790505b5090506000805b6000805490508110156104c25786866040516102309291906115bc565b60405180910390206000828154811061024c5761024b6115d5565b5b906000526020600020906007020160000160405161026a91906116fc565b6040518091039020036104af576000818154811061028b5761028a6115d5565b5b90600052602060002090600702016040518060e00160405290816000820180546102b490611633565b80601f01602080910402602001604051908101604052809291908181526020018280546102e090611633565b801561032d5780601f106103025761010080835404028352916020019161032d565b820191906000526020600020905b81548152906001019060200180831161031057829003601f168201915b5050505050815260200160018201805461034690611633565b80601f016020809104026020016040519081016040528092919081815260200182805461037290611633565b80156103bf5780601f10610394576101008083540402835291602001916103bf565b820191906000526020600020905b8154815290600101906020018083116103a257829003601f168201915b505050505081526020016002820154815260200160038201548152602001600482015481526020016005820180546103f690611633565b80601f016020809104026020016040519081016040528092919081815260200182805461042290611633565b801561046f5780601f106104445761010080835404028352916020019161046f565b820191906000526020600020905b81548152906001019060200180831161045257829003601f168201915b50505050508152602001600682015481525050838381518110610495576104946115d5565b5b602002602001018190525081806104ab90611742565b9250505b80806104ba90611742565b915050610213565b5081935050505092915050565b60005b6000805490508110156106765784600082815481106104f4576104f36115d5565b5b9060005260206000209060070201600401540361066357600160008054905061051d91906117b9565b81146105e3576000600160008054905061053791906117b9565b81548110610548576105476115d5565b5b90600052602060002090600702016000828154811061056a576105696115d5565b5b90600052602060002090600702016000820181600001908161058c91906119af565b50600182018160010190816105a191906119af565b50600282015481600201556003820154816003015560048201548160040155600582018160050190816105d491906119af565b50600682015481600601559050505b60008054806105f5576105f4611a97565b5b60019003818190600052602060002090600702016000808201600061061a9190610f28565b60018201600061062a9190610f28565b6002820160009055600382016000905560048201600090556005820160006106529190610f28565b600682016000905550509055610676565b808061066e90611742565b9150506104d2565b5060006040518060e001604052808c8c8080601f016020809104026020016040519081016040528093929190818152602001838380828437600081840152601f19601f8201169050808301925050505050505081526020018a8a8080601f016020809104026020016040519081016040528093929190818152602001838380828437600081840152601f19601f82011690508083019250505050505050815260200188815260200187815260200186815260200185858080601f016020809104026020016040519081016040528093929190818152602001838380828437600081840152601f19601f820116905080830192505050505050508152602001838152509050600081908060018154018082558091505060019003906000526020600020906007020160009091909190915060008201518160000190816107bb9190611ac6565b5060208201518160010190816107d19190611ac6565b5060408201518160020155606082015181600301556080820151816004015560a08201518160050190816108059190611ac6565b5060c0820151816006015550505050505050505050505050565b610827610eeb565b60005b600080549050811015610a8957826000828154811061084c5761084b6115d5565b5b90600052602060002090600702016004015403610a765760008181548110610877576108766115d5565b5b90600052602060002090600702016040518060e00160405290816000820180546108a090611633565b80601f01602080910402602001604051908101604052809291908181526020018280546108cc90611633565b80156109195780601f106108ee57610100808354040283529160200191610919565b820191906000526020600020905b8154815290600101906020018083116108fc57829003601f168201915b5050505050815260200160018201805461093290611633565b80601f016020809104026020016040519081016040528092919081815260200182805461095e90611633565b80156109ab5780601f10610980576101008083540402835291602001916109ab565b820191906000526020600020905b81548152906001019060200180831161098e57829003601f168201915b505050505081526020016002820154815260200160038201548152602001600482015481526020016005820180546109e290611633565b80601f0160208091040260200160405190810160405280929190818152602001828054610a0e90611633565b8015610a5b5780601f10610a3057610100808354040283529160200191610a5b565b820191906000526020600020905b815481529060010190602001808311610a3e57829003601f168201915b50505050508152602001600682015481525050915050610ac5565b8080610a8190611742565b91505061082a565b506040517f08c379a0000000000000000000000000000000000000000000000000000000008152600401610abc90611c0a565b60405180910390fd5b919050565b60005b600080549050811015610cfc578160008281548110610aef57610aee6115d5565b5b90600052602060002090600702016004015403610ce95760008181548110610b1a57610b196115d5565b5b906000526020600020906007020160008082016000610b399190610f28565b600182016000610b499190610f28565b600282016000905560038201600090556004820160009055600582016000610b719190610f28565b6006820160009055505060008190505b6001600080549050610b9391906117b9565b811015610c67576000600182610ba99190611c2a565b81548110610bba57610bb96115d5565b5b906000526020600020906007020160008281548110610bdc57610bdb6115d5565b5b906000526020600020906007020160008201816000019081610bfe91906119af565b5060018201816001019081610c1391906119af565b5060028201548160020155600382015481600301556004820154816004015560058201816005019081610c4691906119af565b50600682015481600601559050508080610c5f90611742565b915050610b81565b506000805480610c7a57610c79611a97565b5b600190038181906000526020600020906007020160008082016000610c9f9190610f28565b600182016000610caf9190610f28565b600282016000905560038201600090556004820160009055600582016000610cd79190610f28565b60068201600090555050905550610cfe565b8080610cf490611742565b915050610acd565b505b50565b60008181548110610d1157600080fd5b9060005260206000209060070201600091509050806000018054610d3490611633565b80601f0160208091040260200160405190810160405280929190818152602001828054610d6090611633565b8015610dad5780601f10610d8257610100808354040283529160200191610dad565b820191906000526020600020905b815481529060010190602001808311610d9057829003601f168201915b505050505090806001018054610dc290611633565b80601f0160208091040260200160405190810160405280929190818152602001828054610dee90611633565b8015610e3b5780601f10610e1057610100808354040283529160200191610e3b565b820191906000526020600020905b815481529060010190602001808311610e1e57829003601f168201915b505050505090806002015490806003015490806004015490806005018054610e6290611633565b80601f0160208091040260200160405190810160405280929190818152602001828054610e8e90611633565b8015610edb5780601f10610eb057610100808354040283529160200191610edb565b820191906000526020600020905b815481529060010190602001808311610ebe57829003601f168201915b5050505050908060060154905087565b6040518060e00160405280606081526020016060815260200160008152602001600081526020016000815260200160608152602001600081525090565b508054610f3490611633565b6000825580601f10610f465750610f65565b601f016020900490600052602060002090810190610f649190610f68565b5b50565b5b80821115610f81576000816000905550600101610f69565b5090565b600080fd5b600080fd5b600080fd5b600080fd5b600080fd5b60008083601f840112610fb457610fb3610f8f565b5b8235905067ffffffffffffffff811115610fd157610fd0610f94565b5b602083019150836001820283011115610fed57610fec610f99565b5b9250929050565b6000806020838503121561100b5761100a610f85565b5b600083013567ffffffffffffffff81111561102957611028610f8a565b5b61103585828601610f9e565b92509250509250929050565b600081519050919050565b600082825260208201905092915050565b6000819050602082019050919050565b600081519050919050565b600082825260208201905092915050565b60005b838110156110a757808201518184015260208101905061108c565b60008484015250505050565b6000601f19601f8301169050919050565b60006110cf8261106d565b6110d98185611078565b93506110e9818560208601611089565b6110f2816110b3565b840191505092915050565b6000819050919050565b611110816110fd565b82525050565b600060e083016000830151848203600086015261113382826110c4565b9150506020830151848203602086015261114d82826110c4565b91505060408301516111626040860182611107565b5060608301516111756060860182611107565b5060808301516111886080860182611107565b5060a083015184820360a08601526111a082826110c4565b91505060c08301516111b560c0860182611107565b508091505092915050565b60006111cc8383611116565b905092915050565b6000602082019050919050565b60006111ec82611041565b6111f6818561104c565b9350836020820285016112088561105d565b8060005b85811015611244578484038952815161122585826111c0565b9450611230836111d4565b925060208a0199505060018101905061120c565b50829750879550505050505092915050565b6000602082019050818103600083015261127081846111e1565b905092915050565b611281816110fd565b811461128c57600080fd5b50565b60008135905061129e81611278565b92915050565b60008060008060008060008060008060e08b8d0312156112c7576112c6610f85565b5b60008b013567ffffffffffffffff8111156112e5576112e4610f8a565b5b6112f18d828e01610f9e565b9a509a505060208b013567ffffffffffffffff81111561131457611313610f8a565b5b6113208d828e01610f9e565b985098505060406113338d828e0161128f565b96505060606113448d828e0161128f565b95505060806113558d828e0161128f565b94505060a08b013567ffffffffffffffff81111561137657611375610f8a565b5b6113828d828e01610f9e565b935093505060c06113958d828e0161128f565b9150509295989b9194979a5092959850565b6000602082840312156113bd576113bc610f85565b5b60006113cb8482850161128f565b91505092915050565b600060e08301600083015184820360008601526113f182826110c4565b9150506020830151848203602086015261140b82826110c4565b91505060408301516114206040860182611107565b5060608301516114336060860182611107565b5060808301516114466080860182611107565b5060a083015184820360a086015261145e82826110c4565b91505060c083015161147360c0860182611107565b508091505092915050565b6000602082019050818103600083015261149881846113d4565b905092915050565b600082825260208201905092915050565b60006114bc8261106d565b6114c681856114a0565b93506114d6818560208601611089565b6114df816110b3565b840191505092915050565b6114f3816110fd565b82525050565b600060e0820190508181036000830152611513818a6114b1565b9050818103602083015261152781896114b1565b905061153660408301886114ea565b61154360608301876114ea565b61155060808301866114ea565b81810360a083015261156281856114b1565b905061157160c08301846114ea565b98975050505050505050565b600081905092915050565b82818337600083830152505050565b60006115a3838561157d565b93506115b0838584611588565b82840190509392505050565b60006115c9828486611597565b91508190509392505050565b7f4e487b7100000000000000000000000000000000000000000000000000000000600052603260045260246000fd5b7f4e487b7100000000000000000000000000000000000000000000000000000000600052602260045260246000fd5b6000600282049050600182168061164b57607f821691505b60208210810361165e5761165d611604565b5b50919050565b60008190508160005260206000209050919050565b6000815461168681611633565b611690818661157d565b945060018216600081146116ab57600181146116c0576116f3565b60ff19831686528115158202860193506116f3565b6116c985611664565b60005b838110156116eb578154818901526001820191506020810190506116cc565b838801955050505b50505092915050565b60006117088284611679565b915081905092915050565b7f4e487b7100000000000000000000000000000000000000000000000000000000600052601160045260246000fd5b600061174d826110fd565b91507fffffffffffffffffffffffffffffffffffffffffffffffffffffffffffffffff820361177f5761177e611713565b5b600182019050919050565b7f4e487b7100000000000000000000000000000000000000000000000000000000600052604160045260246000fd5b60006117c4826110fd565b91506117cf836110fd565b92508282039050818111156117e7576117e6611713565b5b92915050565b6000815490506117fc81611633565b9050919050565b60008190508160005260206000209050919050565b60006020601f8301049050919050565b600082821b905092915050565b6000600883026118657fffffffffffffffffffffffffffffffffffffffffffffffffffffffffffffffff82611828565b61186f8683611828565b95508019841693508086168417925050509392505050565b6000819050919050565b60006118ac6118a76118a2846110fd565b611887565b6110fd565b9050919050565b6000819050919050565b6118c683611891565b6118da6118d2826118b3565b848454611835565b825550505050565b600090565b6118ef6118e2565b6118fa8184846118bd565b505050565b5b8181101561191e576119136000826118e7565b600181019050611900565b5050565b601f8211156119635761193481611803565b61193d84611818565b8101602085101561194c578190505b61196061195885611818565b8301826118ff565b50505b505050565b600082821c905092915050565b600061198660001984600802611968565b1980831691505092915050565b600061199f8383611975565b9150826002028217905092915050565b8181036119bd575050611a95565b6119c6826117ed565b67ffffffffffffffff8111156119df576119de61178a565b5b6119e98254611633565b6119f4828285611922565b6000601f831160018114611a235760008415611a11578287015490505b611a1b8582611993565b865550611a8e565b601f198416611a3187611803565b9650611a3c86611803565b60005b82811015611a6457848901548255600182019150600185019450602081019050611a3f565b86831015611a815784890154611a7d601f891682611975565b8355505b6001600288020188555050505b5050505050505b565b7f4e487b7100000000000000000000000000000000000000000000000000000000600052603160045260246000fd5b611acf8261106d565b67ffffffffffffffff811115611ae857611ae761178a565b5b611af28254611633565b611afd828285611922565b600060209050601f831160018114611b305760008415611b1e578287015190505b611b288582611993565b865550611b90565b601f198416611b3e86611803565b60005b82811015611b6657848901518255600182019150602085019450602081019050611b41565b86831015611b835784890151611b7f601f891682611975565b8355505b6001600288020188555050505b505050505050565b7f4e6f7420666f756e64205265616c53746174652077697468207468697320726560008201527f67697374726174696f6e00000000000000000000000000000000000000000000602082015250565b6000611bf4602a836114a0565b9150611bff82611b98565b604082019050919050565b60006020820190508181036000830152611c2381611be7565b9050919050565b6000611c35826110fd565b9150611c40836110fd565b9250828201905080821115611c5857611c57611713565b5b9291505056fea26469706673582212201a4823294524d627d6d1a9a5baf455520164b09ae40c4f62b60835c80a9d7c4164736f6c63430008110033",
  "immutableReferences": {},
  "source": "pragma solidity ^0.8.10;\r\nimport \"@chainlink/contracts/src/v0.8/interfaces/AggregatorV3Interface.sol\";\r\n\r\nlibrary Shared {\r\n    struct RealState {\r\n        string city;\r\n        string street;\r\n        uint number;\r\n        uint meters;\r\n        uint registration;\r\n        string owner;\r\n        uint price;\r\n    }\r\n}\r\n\r\ncontract RealStateContractCities {\r\n\r\n    struct HistoricalData {\r\n        string city;\r\n        string street;\r\n        uint number;\r\n        uint meters;\r\n        uint registration;\r\n        string owner;\r\n        uint timestamp;\r\n        address requester;\r\n        uint price;\r\n    }\r\n\r\n    AggregatorV3Interface internal priceFeed;\r\n\r\n    HistoricalData[] public globalHistoricalData;\r\n    \r\n    mapping( string => Shared.RealState[]) public realStateMap;\r\n\r\n    mapping( string => mapping( string => Shared.RealState[])) public realStateMapMap;\r\n\r\n    address public administrator;\r\n    mapping(address => bool) public authorizedAddresses;\r\n\r\n    mapping(string => HistoricalData[]) public historicalDataMap;\r\n\r\n    function getRealStateByCity (string calldata _city) public view returns(Shared.RealState[] memory) {\r\n        return realStateMap[_city];\r\n    }\r\n\r\n   function addRealState(Shared.RealState calldata realState) public {\r\n        HistoricalData memory historicalData = HistoricalData({\r\n            city: realState.city,\r\n            street: realState.street,\r\n            number: realState.number,\r\n            meters: realState.meters,\r\n            registration: realState.registration,\r\n            owner: realState.owner,\r\n            timestamp: block.timestamp,\r\n            requester: msg.sender,\r\n            price: realState.price \r\n        });\r\n\r\n        globalHistoricalData.push(historicalData);\r\n        historicalDataMap[realState.city].push(historicalData);\r\n        removeExistingRealState(realState);\r\n        realStateMap[realState.city].push(realState);\r\n\r\n        //int ethUsdPrice = getEthUsdPrice();\r\n    }\r\n\r\n    function removeExistingRealState(Shared.RealState calldata realState) internal {\r\n    Shared.RealState[] storage existingRealStates = realStateMap[realState.city];\r\n\r\n    for (uint i = 0; i < existingRealStates.length; i++) {\r\n        if (existingRealStates[i].registration == realState.registration) {\r\n            delete existingRealStates[i];\r\n            if (i < existingRealStates.length - 1) {\r\n                existingRealStates[i] = existingRealStates[existingRealStates.length - 1];\r\n            }\r\n            existingRealStates.pop();\r\n            break;\r\n        }\r\n    }\r\n    }\r\n\r\n\r\n\r\n    constructor() {\r\n        administrator = msg.sender;\r\n        authorizedAddresses[msg.sender] = true;\r\n        priceFeed = AggregatorV3Interface(0x5f4eC3Df9cbd43714FE2740f5E3616155c5b8419);\r\n    }\r\n\r\n    function isAdministrator() public view returns (bool) {\r\n        return msg.sender == administrator;\r\n    }\r\n\r\n    function addAuthorizedAddress(address _authorizedAddress) public  {\r\n        require(msg.sender == administrator, \"Only the administrator can call this function\");\r\n        authorizedAddresses[_authorizedAddress] = true;\r\n    }\r\n\r\n    function getEthUsdPrice() public view returns (int) {\r\n        (, int price, , ,) = priceFeed.latestRoundData();\r\n        return price;\r\n    }\r\n\r\n    function getGlobalHistoricalData() public view returns (HistoricalData[] memory) {\r\n        return globalHistoricalData;\r\n    }\r\n\r\n}\r\n\r\n\r\ncontract RealStateContract{\r\n\r\n    struct RealState {\r\n        string city;\r\n        string street;\r\n        uint number;\r\n        uint meters;\r\n        uint registration;\r\n        string owner;\r\n        uint price;\r\n    }\r\n\r\n    RealState[] public realStateArray;\r\n\r\n    \r\n\r\nfunction addRealState(string calldata _city, string calldata _street, \r\n        uint _number, uint _meters, uint _registration, string calldata _owner, uint _price) public {\r\n    \r\n    for(uint i = 0; i < realStateArray.length; i++){\r\n        if (realStateArray[i].registration == _registration){\r\n            if (i != realStateArray.length - 1) {\r\n                realStateArray[i] = realStateArray[realStateArray.length - 1];\r\n            }\r\n            realStateArray.pop(); \r\n            break; \r\n        }\r\n    }\r\n\r\n    RealState memory re = RealState(_city, _street, _number, _meters, _registration, _owner, _price);\r\n    realStateArray.push(re);\r\n}\r\n\r\n\r\n    function getRealStateByRegistration (uint _registration) public view returns(RealState memory) {\r\n        for(uint i =0; i < realStateArray.length; i++){\r\n            if (realStateArray[i].registration == _registration){\r\n                return realStateArray[i];\r\n            }\r\n        }\r\n\r\n         revert(\"Not found RealState with this registration\");\r\n    }\r\n\r\n    function deleteRealStateByRegistration(uint _registration) public {\r\n        for(uint i =0; i < realStateArray.length; i++){\r\n            if (realStateArray[i].registration == _registration){\r\n                delete realStateArray[i];\r\n\r\n                for(uint j =i; j < realStateArray.length-1; j++){\r\n                    realStateArray[j] = realStateArray[j+1];\r\n                }\r\n\r\n                realStateArray.pop(); // delete the last\r\n                // Important to reduce -1 the leght of array\r\n\r\n                return; // for finish method\r\n            }\r\n        }\r\n    }\r\n\r\n    function getRealStateByCity (string calldata _city) public view returns(RealState[] memory) {\r\n       uint resultLength = 0;\r\n        for(uint i =0; i < realStateArray.length; i++){\r\n            if (keccak256(bytes(realStateArray[i].city)) == keccak256(bytes(_city))){\r\n                resultLength++;\r\n            }\r\n        }\r\n        RealState[] memory rsReturn = new RealState[](resultLength);\r\n        uint positionInsert = 0;\r\n        for(uint i =0; i < realStateArray.length; i++){\r\n            if (keccak256(bytes(realStateArray[i].city)) == keccak256(bytes(_city))){\r\n                rsReturn[positionInsert] = realStateArray[i];\r\n                positionInsert++;\r\n            }\r\n        }\r\n        return rsReturn;\r\n    }\r\n}",
  "sourcePath": "C:\\Users\\javie\\OneDrive\\Escritorio\\backup\\bnb3\\contracts\\RealStateContract.sol",
  "compiler": {
    "name": "solc",
    "version": "0.8.17+commit.8df45f5f.Emscripten.clang"
  },
  "schemaVersion": "3.4.16",
  "updatedAt": "2023-12-17T15:01:00.982Z",
  "networkType": "ethereum",
  "devdoc": {
    "kind": "dev",
    "methods": {},
    "version": 1
  },
  "userdoc": {
    "kind": "user",
    "methods": {},
    "version": 1
  }
}